{
  "address": "0x9Bb65b12162a51413272d10399282E730822Df44",
  "abi": [
    {
      "inputs": [
        {
          "internalType": "contract IVault",
          "name": "vault",
          "type": "address"
        },
        {
          "internalType": "bytes32",
          "name": "poolId",
          "type": "bytes32"
        }
      ],
      "stateMutability": "nonpayable",
      "type": "constructor"
    },
    {
      "inputs": [],
      "name": "getPoolId",
      "outputs": [
        {
          "internalType": "bytes32",
          "name": "",
          "type": "bytes32"
        }
      ],
      "stateMutability": "view",
      "type": "function"
    },
    {
      "inputs": [],
      "name": "getPoolTokens",
      "outputs": [
        {
          "internalType": "address[]",
          "name": "",
          "type": "address[]"
        },
        {
          "internalType": "uint256[]",
          "name": "",
          "type": "uint256[]"
        },
        {
          "internalType": "uint256",
          "name": "",
          "type": "uint256"
        }
      ],
      "stateMutability": "view",
      "type": "function"
    },
    {
      "inputs": [],
      "name": "getVault",
      "outputs": [
        {
          "internalType": "contract IVault",
          "name": "",
          "type": "address"
        }
      ],
      "stateMutability": "view",
      "type": "function"
    }
  ],
  "transactionHash": "0xb03fd5f7dccf6da1618100a7880fe418fc6f806dcbcc506df06c8b3ef3e6988f",
  "args": [
    "0xBA12222222228d8Ba445958a75a0704d566BF2C8",
    "0x1310a5d8a1f7c7cc54b5523e5129499a89d6a8ad00010000000000000000068a"
  ],
  "numDeployments": 1,
  "solcInputHash": "bbd41956f4efcd48da90c355b2dcddee",
  "bytecode": "0x60c06040523480156200001157600080fd5b5060405162000dd938038062000dd9833981810160405281019062000037919062000315565b6000801b81141562000149573373ffffffffffffffffffffffffffffffffffffffff16635ed312826040518163ffffffff1660e01b815260040160206040518083038186803b1580156200008a57600080fd5b505afa1580156200009f573d6000803e3d6000fd5b505050506040513d601f19601f82011682018060405250810190620000c591906200027c565b73ffffffffffffffffffffffffffffffffffffffff166338fff2d06040518163ffffffff1660e01b815260040160206040518083038186803b1580156200010b57600080fd5b505afa15801562000120573d6000803e3d6000fd5b505050506040513d601f19601f82011682018060405250810190620001469190620002e9565b90505b8173ffffffffffffffffffffffffffffffffffffffff1663f6c00927826040518263ffffffff1660e01b815260040162000184919062000367565b604080518083038186803b1580156200019c57600080fd5b505afa158015620001b1573d6000803e3d6000fd5b505050506040513d601f19601f82011682018060405250810190620001d79190620002a8565b50508173ffffffffffffffffffffffffffffffffffffffff1660808173ffffffffffffffffffffffffffffffffffffffff1660601b815250508060a08181525050505062000435565b6000815190506200023181620003d6565b92915050565b6000815190506200024881620003f0565b92915050565b6000815190506200025f816200040a565b92915050565b600081519050620002768162000424565b92915050565b6000602082840312156200028f57600080fd5b60006200029f8482850162000220565b91505092915050565b60008060408385031215620002bc57600080fd5b6000620002cc8582860162000220565b9250506020620002df8582860162000265565b9150509250929050565b600060208284031215620002fc57600080fd5b60006200030c8482850162000237565b91505092915050565b600080604083850312156200032957600080fd5b600062000339858286016200024e565b92505060206200034c8582860162000237565b9150509250929050565b620003618162000398565b82525050565b60006020820190506200037e600083018462000356565b92915050565b60006200039182620003b6565b9050919050565b6000819050919050565b6000620003af8262000384565b9050919050565b600073ffffffffffffffffffffffffffffffffffffffff82169050919050565b620003e18162000384565b8114620003ed57600080fd5b50565b620003fb8162000398565b81146200040757600080fd5b50565b6200041581620003a2565b81146200042157600080fd5b50565b600381106200043257600080fd5b50565b60805160601c60a05161096f6200046a6000396000818160a6015261011201526000818160d6015261030c015261096f6000f3fe608060405234801561001057600080fd5b50600436106100415760003560e01c806338fff2d01461004657806389c06568146100645780638d928af814610084575b600080fd5b61004e6100a2565b60405161005b9190610681565b60405180910390f35b61006c6100ca565b60405161007b9392919061063c565b60405180910390f35b61008c610308565b604051610099919061069c565b60405180910390f35b60007f0000000000000000000000000000000000000000000000000000000000000000905090565b606080600060608060007f000000000000000000000000000000000000000000000000000000000000000073ffffffffffffffffffffffffffffffffffffffff1663f94d46687f00000000000000000000000000000000000000000000000000000000000000006040518263ffffffff1660e01b815260040161014d9190610681565b60006040518083038186803b15801561016557600080fd5b505afa158015610179573d6000803e3d6000fd5b505050506040513d6000823e3d601f19601f820116820180604052508101906101a29190610486565b8093508194508295505050506000835167ffffffffffffffff8111156101f1577f4e487b7100000000000000000000000000000000000000000000000000000000600052604160045260246000fd5b60405190808252806020026020018201604052801561021f5781602001602082028036833780820191505090505b50905060005b84518110156102f557848181518110610267577f4e487b7100000000000000000000000000000000000000000000000000000000600052603260045260246000fd5b60200260200101518282815181106102a8577f4e487b7100000000000000000000000000000000000000000000000000000000600052603260045260246000fd5b602002602001019073ffffffffffffffffffffffffffffffffffffffff16908173ffffffffffffffffffffffffffffffffffffffff168152505080806102ed90610853565b915050610225565b5080838396509650965050505050909192565b60007f0000000000000000000000000000000000000000000000000000000000000000905090565b600061034361033e846106dc565b6106b7565b9050808382526020820190508285602086028201111561036257600080fd5b60005b858110156103925781610378888261045c565b845260208401935060208301925050600181019050610365565b5050509392505050565b60006103af6103aa84610708565b6106b7565b905080838252602082019050828560208602820111156103ce57600080fd5b60005b858110156103fe57816103e48882610471565b8452602084019350602083019250506001810190506103d1565b5050509392505050565b600082601f83011261041957600080fd5b8151610429848260208601610330565b91505092915050565b600082601f83011261044357600080fd5b815161045384826020860161039c565b91505092915050565b60008151905061046b8161090b565b92915050565b60008151905061048081610922565b92915050565b60008060006060848603121561049b57600080fd5b600084015167ffffffffffffffff8111156104b557600080fd5b6104c186828701610408565b935050602084015167ffffffffffffffff8111156104de57600080fd5b6104ea86828701610432565b92505060406104fb86828701610471565b9150509250925092565b60006105118383610535565b60208301905092915050565b6000610529838361061e565b60208301905092915050565b61053e816107a6565b82525050565b600061054f82610754565b6105598185610784565b935061056483610734565b8060005b8381101561059557815161057c8882610505565b97506105878361076a565b925050600181019050610568565b5085935050505092915050565b60006105ad8261075f565b6105b78185610795565b93506105c283610744565b8060005b838110156105f35781516105da888261051d565b97506105e583610777565b9250506001810190506105c6565b5085935050505092915050565b610609816107b8565b82525050565b610618816107fe565b82525050565b610627816107f4565b82525050565b610636816107f4565b82525050565b600060608201905081810360008301526106568186610544565b9050818103602083015261066a81856105a2565b9050610679604083018461062d565b949350505050565b60006020820190506106966000830184610600565b92915050565b60006020820190506106b1600083018461060f565b92915050565b60006106c16106d2565b90506106cd8282610822565b919050565b6000604051905090565b600067ffffffffffffffff8211156106f7576106f66108cb565b5b602082029050602081019050919050565b600067ffffffffffffffff821115610723576107226108cb565b5b602082029050602081019050919050565b6000819050602082019050919050565b6000819050602082019050919050565b600081519050919050565b600081519050919050565b6000602082019050919050565b6000602082019050919050565b600082825260208201905092915050565b600082825260208201905092915050565b60006107b1826107d4565b9050919050565b6000819050919050565b60006107cd826107a6565b9050919050565b600073ffffffffffffffffffffffffffffffffffffffff82169050919050565b6000819050919050565b600061080982610810565b9050919050565b600061081b826107d4565b9050919050565b61082b826108fa565b810181811067ffffffffffffffff8211171561084a576108496108cb565b5b80604052505050565b600061085e826107f4565b91507fffffffffffffffffffffffffffffffffffffffffffffffffffffffffffffffff8214156108915761089061089c565b5b600182019050919050565b7f4e487b7100000000000000000000000000000000000000000000000000000000600052601160045260246000fd5b7f4e487b7100000000000000000000000000000000000000000000000000000000600052604160045260246000fd5b6000601f19601f8301169050919050565b610914816107c2565b811461091f57600080fd5b50565b61092b816107f4565b811461093657600080fd5b5056fea264697066735822122068a63ad040527864ea09f602c6e0f0847ccdd64bf42be9d6787844db8bd3f2d164736f6c63430008010033",
  "devdoc": {
    "kind": "dev",
    "methods": {},
    "title": "Controller",
    "version": 1
  },
  "userdoc": {
    "kind": "user",
    "methods": {},
    "notice": "This is a Managed Pool Controller that exists to be the owner of Managed Pools.",
    "version": 1
  },
  "storageLayout": {
    "storage": [],
    "types": null
  }
}