{
  "address": "0x0181c246e92340aC7E23ce9825E3b49022d09Eff",
  "abi": [
    {
      "inputs": [
        {
          "internalType": "contract IVault",
          "name": "vault",
          "type": "address"
        },
        {
          "internalType": "address",
          "name": "factory",
          "type": "address"
        }
      ],
      "stateMutability": "nonpayable",
      "type": "constructor"
    },
    {
      "anonymous": false,
      "inputs": [
        {
          "indexed": true,
          "internalType": "address",
          "name": "controller",
          "type": "address"
        },
        {
          "indexed": false,
          "internalType": "bytes32",
          "name": "poolId",
          "type": "bytes32"
        }
      ],
      "name": "ControllerCreated",
      "type": "event"
    },
    {
      "anonymous": false,
      "inputs": [],
      "name": "ControllerFactoryDisabled",
      "type": "event"
    },
    {
      "anonymous": false,
      "inputs": [
        {
          "indexed": true,
          "internalType": "address",
          "name": "previousOwner",
          "type": "address"
        },
        {
          "indexed": true,
          "internalType": "address",
          "name": "newOwner",
          "type": "address"
        }
      ],
      "name": "OwnershipTransferred",
      "type": "event"
    },
    {
      "inputs": [],
      "name": "balancerVault",
      "outputs": [
        {
          "internalType": "contract IVault",
          "name": "",
          "type": "address"
        }
      ],
      "stateMutability": "view",
      "type": "function"
    },
    {
      "inputs": [
        {
          "components": [
            {
              "internalType": "string",
              "name": "name",
              "type": "string"
            },
            {
              "internalType": "string",
              "name": "symbol",
              "type": "string"
            },
            {
              "internalType": "contract IERC20[]",
              "name": "tokens",
              "type": "address[]"
            },
            {
              "internalType": "uint256[]",
              "name": "normalizedWeights",
              "type": "uint256[]"
            },
            {
              "internalType": "uint256",
              "name": "swapFeePercentage",
              "type": "uint256"
            },
            {
              "internalType": "bool",
              "name": "swapEnabledOnStart",
              "type": "bool"
            },
            {
              "internalType": "uint256",
              "name": "managementAumFeePercentage",
              "type": "uint256"
            },
            {
              "internalType": "uint256",
              "name": "aumFeeId",
              "type": "uint256"
            }
          ],
          "internalType": "struct ControllerFactory.MinimalPoolParams",
          "name": "minimalParams",
          "type": "tuple"
        }
      ],
      "name": "create",
      "outputs": [],
      "stateMutability": "nonpayable",
      "type": "function"
    },
    {
      "inputs": [],
      "name": "disable",
      "outputs": [],
      "stateMutability": "nonpayable",
      "type": "function"
    },
    {
      "inputs": [],
      "name": "getLastCreatedPool",
      "outputs": [
        {
          "internalType": "address",
          "name": "",
          "type": "address"
        }
      ],
      "stateMutability": "view",
      "type": "function"
    },
    {
      "inputs": [
        {
          "internalType": "address",
          "name": "",
          "type": "address"
        }
      ],
      "name": "isControllerFromFactory",
      "outputs": [
        {
          "internalType": "bool",
          "name": "",
          "type": "bool"
        }
      ],
      "stateMutability": "view",
      "type": "function"
    },
    {
      "inputs": [],
      "name": "isDisabled",
      "outputs": [
        {
          "internalType": "bool",
          "name": "",
          "type": "bool"
        }
      ],
      "stateMutability": "view",
      "type": "function"
    },
    {
      "inputs": [],
      "name": "managedPoolFactory",
      "outputs": [
        {
          "internalType": "address",
          "name": "",
          "type": "address"
        }
      ],
      "stateMutability": "view",
      "type": "function"
    },
    {
      "inputs": [],
      "name": "owner",
      "outputs": [
        {
          "internalType": "address",
          "name": "",
          "type": "address"
        }
      ],
      "stateMutability": "view",
      "type": "function"
    },
    {
      "inputs": [],
      "name": "renounceOwnership",
      "outputs": [],
      "stateMutability": "nonpayable",
      "type": "function"
    },
    {
      "inputs": [
        {
          "internalType": "address",
          "name": "newOwner",
          "type": "address"
        }
      ],
      "name": "transferOwnership",
      "outputs": [],
      "stateMutability": "nonpayable",
      "type": "function"
    }
  ],
  "transactionHash": "0x2c162f56430f9c45afa171c663f25dc9422df4cf7f2889893dd8a477deb0de71",
  "args": [
    "0xBA12222222228d8Ba445958a75a0704d566BF2C8",
    "0x63e179C5b6d54B2c2e36b9cE4085EF5A8C86D50c"
  ],
  "numDeployments": 1,
  "solcInputHash": "f888796c508786c2141ca43d50b7db17",
  "bytecode": "0x60c06040523480156200001157600080fd5b5060405162002c3338038062002c338339818101604052810190620000379190620001b0565b6200004833620000be60201b60201c565b8173ffffffffffffffffffffffffffffffffffffffff1660a08173ffffffffffffffffffffffffffffffffffffffff1660601b815250508073ffffffffffffffffffffffffffffffffffffffff1660808173ffffffffffffffffffffffffffffffffffffffff1660601b8152505050506200026d565b60008060009054906101000a900473ffffffffffffffffffffffffffffffffffffffff169050816000806101000a81548173ffffffffffffffffffffffffffffffffffffffff021916908373ffffffffffffffffffffffffffffffffffffffff1602179055508173ffffffffffffffffffffffffffffffffffffffff168173ffffffffffffffffffffffffffffffffffffffff167f8be0079c531659141344cd1fd0a4f28419497f9722a3daafe3b4186f6b6457e060405160405180910390a35050565b600081519050620001938162000239565b92915050565b600081519050620001aa8162000253565b92915050565b60008060408385031215620001c457600080fd5b6000620001d48582860162000199565b9250506020620001e78582860162000182565b9150509250929050565b6000620001fe8262000219565b9050919050565b60006200021282620001f1565b9050919050565b600073ffffffffffffffffffffffffffffffffffffffff82169050919050565b6200024481620001f1565b81146200025057600080fd5b50565b6200025e8162000205565b81146200026a57600080fd5b50565b60805160601c60a05160601c612983620002b0600039806104c752806109f852508061029552806102f6528061039e52806106bb5280610b6352506129836000f3fe60806040523480156200001157600080fd5b5060043610620000ac5760003560e01c80636c57f5a9116200006f5780636c57f5a91462000157578063715018a614620001795780638da5cb5b1462000185578063d4f25a4b14620001a7578063f2fde38b14620001c957620000ac565b806303818c1114620000b15780630b688a4914620000d1578063158274a514620001075780632f2770db14620001295780635ed312821462000135575b600080fd5b620000cf6004803603810190620000c99190620015a0565b620001e9565b005b620000ef6004803603810190620000e99190620014f0565b620009d6565b604051620000fe919062001cc2565b60405180910390f35b62000111620009f6565b60405162000120919062001cfc565b60405180910390f35b6200013362000a1a565b005b6200013f62000aa8565b6040516200014e919062001ca5565b60405180910390f35b6200016162000ad2565b60405162000170919062001cc2565b60405180910390f35b6200018362000ae5565b005b6200018f62000b38565b6040516200019e919062001ca5565b60405180910390f35b620001b162000b61565b604051620001c0919062001ca5565b60405180910390f35b620001e76004803603810190620001e19190620014f0565b62000b85565b005b600260009054906101000a900460ff16156200023c576040517f08c379a0000000000000000000000000000000000000000000000000000000008152600401620002339062001e81565b60405180910390fd5b620002706040518060600160405280602f81526020016200291f602f9139600260009054906101000a900460ff1662000c16565b620002ba6040518060600160405280603781526020016200288a6037913982600001517f000000000000000000000000000000000000000000000000000000000000000062000cb6565b6200039c6040518060400160405280601481526020017f21494d616e61676564506f6f6c466163746f72790000000000000000000000008152507f000000000000000000000000000000000000000000000000000000000000000073ffffffffffffffffffffffffffffffffffffffff16636c57f5a96040518163ffffffff1660e01b815260040160206040518083038186803b1580156200035b57600080fd5b505afa15801562000370573d6000803e3d6000fd5b505050506040513d601f19601f8201168201806040525081019062000396919062001548565b62000c16565b7f000000000000000000000000000000000000000000000000000000000000000073ffffffffffffffffffffffffffffffffffffffff16636c57f5a96040518163ffffffff1660e01b815260040160206040518083038186803b1580156200040357600080fd5b505afa15801562000418573d6000803e3d6000fd5b505050506040513d601f19601f820116820180604052508101906200043e919062001548565b1562000481576040517f08c379a0000000000000000000000000000000000000000000000000000000008152600401620004789062001e5f565b60405180910390fd5b600060035460001b9050600360008154809291906001019190505550606060405180602001620004b1906200112a565b6020820181038252601f19601f820116604052507f00000000000000000000000000000000000000000000000000000000000000006000604051602001620004fb92919062001d19565b6040516020818303038152906040526040516020016200051d92919062001c7d565b604051602081830303815290604052905060006200054383838051906020012062000d59565b9050606084604001515167ffffffffffffffff811180156200056457600080fd5b50604051908082528060200260200182016040528015620005945781602001602082028036833780820191505090505b50905060005b8151811015620005fa5782828281518110620005b257fe5b602002602001019073ffffffffffffffffffffffffffffffffffffffff16908173ffffffffffffffffffffffffffffffffffffffff168152505080806001019150506200059a565b506200060562001138565b85600001518160000181905250856020015181602001819052508181604001819052506200063262001159565b866040015181600001819052508660600151816020018190525086608001518160400181815250508660a0015181606001901515908115158152505060008160800190151590811515815250508660c001518160a00181815250508660e001518160c0018181525050600060035460001b905060036000815480929190600101919050555060007f000000000000000000000000000000000000000000000000000000000000000073ffffffffffffffffffffffffffffffffffffffff16637304b8b9858589866040518563ffffffff1660e01b81526004016200071a949392919062001ec5565b602060405180830381600087803b1580156200073557600080fd5b505af11580156200074a573d6000803e3d6000fd5b505050506040513d601f19601f820116820180604052508101906200077091906200151c565b905080600460006101000a81548173ffffffffffffffffffffffffffffffffffffffff021916908373ffffffffffffffffffffffffffffffffffffffff160217905550620007fa604051806060016040528060308152602001620028ef60309139600460009054906101000a900473ffffffffffffffffffffffffffffffffffffffff1662000d70565b60006200080a60008a8a62000e10565b90508073ffffffffffffffffffffffffffffffffffffffff168773ffffffffffffffffffffffffffffffffffffffff16146200087d576040517f08c379a0000000000000000000000000000000000000000000000000000000008152600401620008749062001e3d565b60405180910390fd5b60018060008373ffffffffffffffffffffffffffffffffffffffff1673ffffffffffffffffffffffffffffffffffffffff16815260200190815260200160002060006101000a81548160ff021916908315150217905550620008f96040518060600160405280602e8152602001620028c1602e91398262000d70565b8073ffffffffffffffffffffffffffffffffffffffff167fe28c6fbc4eea571ad9b63caadffab5ed31c5fe070869482612284e482b1c94ba8373ffffffffffffffffffffffffffffffffffffffff166338fff2d06040518163ffffffff1660e01b815260040160206040518083038186803b1580156200097857600080fd5b505afa1580156200098d573d6000803e3d6000fd5b505050506040513d601f19601f82011682018060405250810190620009b3919062001574565b604051620009c2919062001cdf565b60405180910390a250505050505050505050565b60016020528060005260406000206000915054906101000a900460ff1681565b7f000000000000000000000000000000000000000000000000000000000000000081565b62000a5f3373ffffffffffffffffffffffffffffffffffffffff1662000a3f62000b38565b73ffffffffffffffffffffffffffffffffffffffff16146101aa62000f2a565b6001600260006101000a81548160ff0219169083151502179055507ff5d010c63fd4b7b423d9e3300f87bcd6131e94d44e9a585a74770b23213a8e0160405160405180910390a1565b6000600460009054906101000a900473ffffffffffffffffffffffffffffffffffffffff16905090565b600260009054906101000a900460ff1681565b62000b2a3373ffffffffffffffffffffffffffffffffffffffff1662000b0a62000b38565b73ffffffffffffffffffffffffffffffffffffffff16146101aa62000f2a565b62000b36600062000f40565b565b60008060009054906101000a900473ffffffffffffffffffffffffffffffffffffffff16905090565b7f000000000000000000000000000000000000000000000000000000000000000081565b62000bca3373ffffffffffffffffffffffffffffffffffffffff1662000baa62000b38565b73ffffffffffffffffffffffffffffffffffffffff16146101aa62000f2a565b62000c08600073ffffffffffffffffffffffffffffffffffffffff168273ffffffffffffffffffffffffffffffffffffffff1614156101ab62000f2a565b62000c138162000f40565b50565b62000cb2828260405160240162000c2f92919062001d7a565b6040516020818303038152906040527fc3b55635000000000000000000000000000000000000000000000000000000007bffffffffffffffffffffffffffffffffffffffffffffffffffffffff19166020820180517bffffffffffffffffffffffffffffffffffffffffffffffffffffffff838183161783525050505062001004565b5050565b62000d5483838360405160240162000cd19392919062001dae565b6040516020818303038152906040527f95ed0195000000000000000000000000000000000000000000000000000000007bffffffffffffffffffffffffffffffffffffffffffffffffffffffff19166020820180517bffffffffffffffffffffffffffffffffffffffffffffffffffffffff838183161783525050505062001004565b505050565b600062000d6883833062001022565b905092915050565b62000e0c828260405160240162000d8992919062001d46565b6040516020818303038152906040527f319af333000000000000000000000000000000000000000000000000000000007bffffffffffffffffffffffffffffffffffffffffffffffffffffffff19166020820180517bffffffffffffffffffffffffffffffffffffffffffffffffffffffff838183161783525050505062001004565b5050565b6000808447101562000e59576040517f08c379a000000000000000000000000000000000000000000000000000000000815260040162000e509062001df9565b60405180910390fd5b60008351141562000ea1576040517f08c379a000000000000000000000000000000000000000000000000000000000815260040162000e989062001ea3565b60405180910390fd5b8383516020850187f59050600073ffffffffffffffffffffffffffffffffffffffff168173ffffffffffffffffffffffffffffffffffffffff16141562000f1f576040517f08c379a000000000000000000000000000000000000000000000000000000000815260040162000f169062001e1b565b60405180910390fd5b809150509392505050565b8162000f3c5762000f3b8162001068565b5b5050565b60008060009054906101000a900473ffffffffffffffffffffffffffffffffffffffff169050816000806101000a81548173ffffffffffffffffffffffffffffffffffffffff021916908373ffffffffffffffffffffffffffffffffffffffff1602179055508173ffffffffffffffffffffffffffffffffffffffff168173ffffffffffffffffffffffffffffffffffffffff167f8be0079c531659141344cd1fd0a4f28419497f9722a3daafe3b4186f6b6457e060405160405180910390a35050565b6200101f81620010176200107d6200109e565b63ffffffff16565b50565b60008060ff60f81b83868660405160200162001042949392919062001c27565b6040516020818303038152906040528051906020012090508060001c9150509392505050565b6200107a816242414c60e81b620010aa565b50565b60006a636f6e736f6c652e6c6f679050600080835160208501845afa505050565b6200119a819050919050565b60008160e81c62ffffff1690506030600a840601600a840493506030600a850601600a850494506030600a8606018360081b60230160181b8160101b8360081b850101810160c81b7f08c379a000000000000000000000000000000000000000000000000000000000600052602060045260076024528060445260646000fd5b6105b980620022d183390190565b60405180606001604052806060815260200160608152602001606081525090565b6040518060e0016040528060608152602001606081526020016000815260200160001515815260200160001515815260200160008152602001600081525090565bfe5b600081359050620011ad816200224e565b92915050565b600081519050620011c4816200224e565b92915050565b600082601f830112620011dc57600080fd5b8135620011f3620011ed8262001f4e565b62001f20565b915081818352602084019350602081019050838560208402820111156200121957600080fd5b60005b838110156200124d578162001232888262001329565b8452602084019350602083019250506001810190506200121c565b5050505092915050565b600082601f8301126200126957600080fd5b8135620012806200127a8262001f77565b62001f20565b91508181835260208401935060208101905083856020840282011115620012a657600080fd5b60005b83811015620012da5781620012bf8882620014d9565b845260208401935060208301925050600181019050620012a9565b5050505092915050565b600081359050620012f58162002268565b92915050565b6000815190506200130c8162002268565b92915050565b600081519050620013238162002282565b92915050565b6000813590506200133a816200229c565b92915050565b600082601f8301126200135257600080fd5b813562001369620013638262001fa0565b62001f20565b915080825260208301602083018583830111156200138657600080fd5b62001393838284620021af565b50505092915050565b60006101008284031215620013b057600080fd5b620013bd61010062001f20565b9050600082013567ffffffffffffffff811115620013da57600080fd5b620013e88482850162001340565b600083015250602082013567ffffffffffffffff8111156200140957600080fd5b620014178482850162001340565b602083015250604082013567ffffffffffffffff8111156200143857600080fd5b6200144684828501620011ca565b604083015250606082013567ffffffffffffffff8111156200146757600080fd5b620014758482850162001257565b60608301525060806200148b84828501620014d9565b60808301525060a0620014a184828501620012e4565b60a08301525060c0620014b784828501620014d9565b60c08301525060e0620014cd84828501620014d9565b60e08301525092915050565b600081359050620014ea81620022b6565b92915050565b6000602082840312156200150357600080fd5b600062001513848285016200119c565b91505092915050565b6000602082840312156200152f57600080fd5b60006200153f84828501620011b3565b91505092915050565b6000602082840312156200155b57600080fd5b60006200156b84828501620012fb565b91505092915050565b6000602082840312156200158757600080fd5b6000620015978482850162001312565b91505092915050565b600060208284031215620015b357600080fd5b600082013567ffffffffffffffff811115620015ce57600080fd5b620015dc848285016200139c565b91505092915050565b6000620015f3838362001633565b60208301905092915050565b60006200160d83836200184e565b60208301905092915050565b600062001627838362001c16565b60208301905092915050565b6200163e81620020aa565b82525050565b6200164f81620020aa565b82525050565b6200166a6200166482620020aa565b620021f4565b82525050565b60006200167d8262001ffd565b6200168981856200205b565b9350620016968362001fcd565b8060005b83811015620016cd578151620016b18882620015e5565b9750620016be8362002034565b9250506001810190506200169a565b5085935050505092915050565b6000620016e78262002008565b620016f381856200205b565b9350620017008362001fdd565b8060005b83811015620017375781516200171b8882620015ff565b9750620017288362002041565b92505060018101905062001704565b5085935050505092915050565b6000620017518262002013565b6200175d81856200206c565b93506200176a8362001fed565b8060005b83811015620017a157815162001785888262001619565b975062001792836200204e565b9250506001810190506200176e565b5085935050505092915050565b620017b981620020be565b82525050565b620017ca81620020be565b82525050565b620017e5620017df82620020ca565b62002208565b82525050565b620017f681620020f6565b82525050565b620018116200180b82620020f6565b62002212565b82525050565b600062001824826200201e565b6200183081856200207d565b935062001842818560208601620021be565b80840191505092915050565b62001859816200214b565b82525050565b6200186a8162002173565b82525050565b6200187b816200219b565b82525050565b60006200188e8262002029565b6200189a818562002088565b9350620018ac818560208601620021be565b620018b78162002230565b840191505092915050565b6000620018cf8262002029565b620018db818562002099565b9350620018ed818560208601620021be565b620018f88162002230565b840191505092915050565b600062001912601c8362002099565b91507f435245415445325f494e53554646494349454e545f42414c414e4345000000006000830152602082019050919050565b60006200195460158362002099565b91507f435245415445325f4445504c4f595f4641494c454400000000000000000000006000830152602082019050919050565b600062001996602e8362002099565b91507f436f6e74726f6c6c6572466163746f72793a20436f6e74726f6c6c657220616460008301527f6472657373206d69736d617463680000000000000000000000000000000000006020830152604082019050919050565b6000620019fe603a8362002099565b91507f436f6e74726f6c6c6572466163746f72792063726561746528293a204d616e6160008301527f676564506f6f6c466163746f72792069732064697361626c65640000000000006020830152604082019050919050565b600062001a6660268362002099565b91507f436f6e74726f6c6c6572466163746f72793a20466163746f727920697320646960008301527f7361626c656400000000000000000000000000000000000000000000000000006020830152604082019050919050565b600062001ace60158362002099565b91507f435245415445325f42595445434f44455f5a45524f00000000000000000000006000830152602082019050919050565b6000606083016000830151848203600086015262001b20828262001881565b9150506020830151848203602086015262001b3c828262001881565b9150506040830151848203604086015262001b58828262001670565b9150508091505092915050565b600060e083016000830151848203600086015262001b848282620016da565b9150506020830151848203602086015262001ba0828262001744565b915050604083015162001bb7604086018262001c16565b50606083015162001bcc6060860182620017ae565b50608083015162001be16080860182620017ae565b5060a083015162001bf660a086018262001c16565b5060c083015162001c0b60c086018262001c16565b508091505092915050565b62001c218162002134565b82525050565b600062001c358287620017d0565b60018201915062001c47828662001655565b60148201915062001c598285620017fc565b60208201915062001c6b8284620017fc565b60208201915081905095945050505050565b600062001c8b828562001817565b915062001c99828462001817565b91508190509392505050565b600060208201905062001cbc600083018462001644565b92915050565b600060208201905062001cd96000830184620017bf565b92915050565b600060208201905062001cf66000830184620017eb565b92915050565b600060208201905062001d1360008301846200185f565b92915050565b600060408201905062001d3060008301856200185f565b62001d3f602083018462001870565b9392505050565b6000604082019050818103600083015262001d628185620018c2565b905062001d73602083018462001644565b9392505050565b6000604082019050818103600083015262001d968185620018c2565b905062001da76020830184620017bf565b9392505050565b6000606082019050818103600083015262001dca8186620018c2565b9050818103602083015262001de08185620018c2565b905062001df1604083018462001644565b949350505050565b6000602082019050818103600083015262001e148162001903565b9050919050565b6000602082019050818103600083015262001e368162001945565b9050919050565b6000602082019050818103600083015262001e588162001987565b9050919050565b6000602082019050818103600083015262001e7a81620019ef565b9050919050565b6000602082019050818103600083015262001e9c8162001a57565b9050919050565b6000602082019050818103600083015262001ebe8162001abf565b9050919050565b6000608082019050818103600083015262001ee1818762001b01565b9050818103602083015262001ef7818662001b65565b905062001f08604083018562001644565b62001f176060830184620017eb565b95945050505050565b6000604051905081810181811067ffffffffffffffff8211171562001f4457600080fd5b8060405250919050565b600067ffffffffffffffff82111562001f6657600080fd5b602082029050602081019050919050565b600067ffffffffffffffff82111562001f8f57600080fd5b602082029050602081019050919050565b600067ffffffffffffffff82111562001fb857600080fd5b601f19601f8301169050602081019050919050565b6000819050602082019050919050565b6000819050602082019050919050565b6000819050602082019050919050565b600081519050919050565b600081519050919050565b600081519050919050565b600081519050919050565b600081519050919050565b6000602082019050919050565b6000602082019050919050565b6000602082019050919050565b600082825260208201905092915050565b600082825260208201905092915050565b600081905092915050565b600082825260208201905092915050565b600082825260208201905092915050565b6000620020b78262002114565b9050919050565b60008115159050919050565b60007fff0000000000000000000000000000000000000000000000000000000000000082169050919050565b6000819050919050565b60006200210d82620020aa565b9050919050565b600073ffffffffffffffffffffffffffffffffffffffff82169050919050565b6000819050919050565b600060ff82169050919050565b600062002158826200215f565b9050919050565b60006200216c8262002114565b9050919050565b6000620021808262002187565b9050919050565b6000620021948262002114565b9050919050565b6000620021a8826200213e565b9050919050565b82818337600083830152505050565b60005b83811015620021de578082015181840152602081019050620021c1565b83811115620021ee576000848401525b50505050565b600062002201826200221c565b9050919050565b6000819050919050565b6000819050919050565b6000620022298262002241565b9050919050565b6000601f19601f8301169050919050565b60008160601b9050919050565b6200225981620020aa565b81146200226557600080fd5b50565b6200227381620020be565b81146200227f57600080fd5b50565b6200228d81620020f6565b81146200229957600080fd5b50565b620022a78162002100565b8114620022b357600080fd5b50565b620022c18162002134565b8114620022cd57600080fd5b5056fe60c060405234801561001057600080fd5b506040516105b93803806105b9833981810160405281019061003291906102ed565b6000801b81141561013b573373ffffffffffffffffffffffffffffffffffffffff16635ed312826040518163ffffffff1660e01b815260040160206040518083038186803b15801561008357600080fd5b505afa158015610097573d6000803e3d6000fd5b505050506040513d601f19601f820116820180604052508101906100bb919061025f565b73ffffffffffffffffffffffffffffffffffffffff166338fff2d06040518163ffffffff1660e01b815260040160206040518083038186803b15801561010057600080fd5b505afa158015610114573d6000803e3d6000fd5b505050506040513d601f19601f8201168201806040525081019061013891906102c4565b90505b8173ffffffffffffffffffffffffffffffffffffffff1663f6c00927826040518263ffffffff1660e01b81526004016101749190610338565b604080518083038186803b15801561018b57600080fd5b505afa15801561019f573d6000803e3d6000fd5b505050506040513d601f19601f820116820180604052508101906101c39190610288565b50508173ffffffffffffffffffffffffffffffffffffffff1660808173ffffffffffffffffffffffffffffffffffffffff1660601b815250508060a0818152505050506103f6565b60008151905061021a816103a1565b92915050565b60008151905061022f816103b8565b92915050565b600081519050610244816103cf565b92915050565b600081519050610259816103e6565b92915050565b60006020828403121561027157600080fd5b600061027f8482850161020b565b91505092915050565b6000806040838503121561029b57600080fd5b60006102a98582860161020b565b92505060206102ba8582860161024a565b9150509250929050565b6000602082840312156102d657600080fd5b60006102e484828501610220565b91505092915050565b6000806040838503121561030057600080fd5b600061030e85828601610235565b925050602061031f85828601610220565b9150509250929050565b61033281610365565b82525050565b600060208201905061034d6000830184610329565b92915050565b600061035e82610381565b9050919050565b6000819050919050565b600061037a82610353565b9050919050565b600073ffffffffffffffffffffffffffffffffffffffff82169050919050565b6103aa81610353565b81146103b557600080fd5b50565b6103c181610365565b81146103cc57600080fd5b50565b6103d88161036f565b81146103e357600080fd5b50565b600381106103f357600080fd5b50565b60805160601c60a05161019f61041a60003980607b52508060a3525061019f6000f3fe608060405234801561001057600080fd5b50600436106100365760003560e01c806338fff2d01461003b5780638d928af814610059575b600080fd5b610043610077565b60405161005091906100e5565b60405180910390f35b61006161009f565b60405161006e9190610100565b60405180910390f35b60007f0000000000000000000000000000000000000000000000000000000000000000905090565b60007f0000000000000000000000000000000000000000000000000000000000000000905090565b6100d08161011b565b82525050565b6100df81610145565b82525050565b60006020820190506100fa60008301846100c7565b92915050565b600060208201905061011560008301846100d6565b92915050565b6000819050919050565b600073ffffffffffffffffffffffffffffffffffffffff82169050919050565b600061015082610157565b9050919050565b600061016282610125565b905091905056fea2646970667358221220d8fc52c13996e54ae7fc6db9e97655f354d4f9fca67665c6be8856968052a7e464736f6c63430007010033436f6e74726f6c6c6572466163746f72792063726561746528292031203a4e616d652c20204d616e61676564506f6f6c466163746f7279436f6e74726f6c6c6572466163746f72792063726561746528293a20436f6e74726f6c6c65722063726561746564436f6e74726f6c6c6572466163746f72792063726561746528293a204d616e6167656420506f6f6c2063726561746564436f6e74726f6c6c6572466163746f727920637265617465282920726571756972652021697344697361626c656420a264697066735822122081c68578d65f219144383376beaf4bc884a152bf2d173bd7a9853aaa086a9c3464736f6c63430007010033",
  "devdoc": {
    "details": "Determines controller deployment address, deploys pool (w/ controller address as argument), then controller.",
    "kind": "dev",
    "methods": {
      "create((string,string,address[],uint256[],uint256,bool,uint256,uint256))": {
        "details": "Create a Managed Pool and a Controller."
      },
      "disable()": {
        "details": "Allow the owner to disable the factory, preventing future deployments.The onlyOwner access control paradigm is an example. Any access control can be implemented to allow for different needs."
      },
      "getLastCreatedPool()": {
        "details": "Return the address of the most recently created pool."
      },
      "owner()": {
        "details": "Returns the address of the current owner."
      },
      "renounceOwnership()": {
        "details": "Leaves the contract without owner. It will not be possible to call `onlyOwner` functions anymore. Can only be called by the current owner. NOTE: Renouncing ownership will leave the contract without an owner, thereby removing any functionality that is only available to the owner."
      },
      "transferOwnership(address)": {
        "details": "Transfers ownership of the contract to a new account (`newOwner`). Can only be called by the current owner."
      }
    },
    "title": "ControllerFactory",
    "version": 1
  },
  "userdoc": {
    "kind": "user",
    "methods": {
      "disable()": {
        "notice": "owner is initially the factory deployer, but this role can be transferred."
      }
    },
    "notice": "Factory for a Managed Pool and Pool Controller.",
    "version": 1
  },
  "storageLayout": {
    "storage": [
      {
        "astId": 1862,
        "contract": "contracts/ControllerFactory.sol:ControllerFactory",
        "label": "_owner",
        "offset": 0,
        "slot": "0",
        "type": "t_address"
      },
      {
        "astId": 2046,
        "contract": "contracts/ControllerFactory.sol:ControllerFactory",
        "label": "isControllerFromFactory",
        "offset": 0,
        "slot": "1",
        "type": "t_mapping(t_address,t_bool)"
      },
      {
        "astId": 2052,
        "contract": "contracts/ControllerFactory.sol:ControllerFactory",
        "label": "isDisabled",
        "offset": 0,
        "slot": "2",
        "type": "t_bool"
      },
      {
        "astId": 2054,
        "contract": "contracts/ControllerFactory.sol:ControllerFactory",
        "label": "_nextControllerSalt",
        "offset": 0,
        "slot": "3",
        "type": "t_uint256"
      },
      {
        "astId": 2056,
        "contract": "contracts/ControllerFactory.sol:ControllerFactory",
        "label": "_lastCreatedPool",
        "offset": 0,
        "slot": "4",
        "type": "t_address"
      }
    ],
    "types": {
      "t_address": {
        "encoding": "inplace",
        "label": "address",
        "numberOfBytes": "20"
      },
      "t_bool": {
        "encoding": "inplace",
        "label": "bool",
        "numberOfBytes": "1"
      },
      "t_mapping(t_address,t_bool)": {
        "encoding": "mapping",
        "key": "t_address",
        "label": "mapping(address => bool)",
        "numberOfBytes": "32",
        "value": "t_bool"
      },
      "t_uint256": {
        "encoding": "inplace",
        "label": "uint256",
        "numberOfBytes": "32"
      }
    }
  }
}